{
  "contracts/HackerStakingContract.sol": {
    "HackerStakingContract": {
      "abi": [
        {
          "inputs": [],
          "stateMutability": "payable",
          "type": "constructor"
        },
        {
          "inputs": [
            {
              "internalType": "address",
              "name": "",
              "type": "address"
            },
            {
              "internalType": "uint256",
              "name": "",
              "type": "uint256"
            }
          ],
          "name": "addressToPositionIds",
          "outputs": [
            {
              "internalType": "uint256",
              "name": "",
              "type": "uint256"
            }
          ],
          "stateMutability": "view",
          "type": "function"
        },
        {
          "inputs": [
            {
              "internalType": "uint256",
              "name": "positionId",
              "type": "uint256"
            }
          ],
          "name": "closePosition",
          "outputs": [],
          "stateMutability": "nonpayable",
          "type": "function"
        },
        {
          "inputs": [],
          "name": "currentPositionId",
          "outputs": [
            {
              "internalType": "uint256",
              "name": "",
              "type": "uint256"
            }
          ],
          "stateMutability": "view",
          "type": "function"
        },
        {
          "inputs": [
            {
              "internalType": "uint256",
              "name": "numDays",
              "type": "uint256"
            }
          ],
          "name": "getInterestRate",
          "outputs": [
            {
              "internalType": "uint256",
              "name": "",
              "type": "uint256"
            }
          ],
          "stateMutability": "view",
          "type": "function"
        },
        {
          "inputs": [],
          "name": "getLockPeriods",
          "outputs": [
            {
              "internalType": "uint256[]",
              "name": "",
              "type": "uint256[]"
            }
          ],
          "stateMutability": "view",
          "type": "function"
        },
        {
          "inputs": [
            {
              "internalType": "uint256",
              "name": "positionId",
              "type": "uint256"
            }
          ],
          "name": "getPositionById",
          "outputs": [
            {
              "components": [
                {
                  "internalType": "uint256",
                  "name": "positionId",
                  "type": "uint256"
                },
                {
                  "internalType": "address",
                  "name": "walletAddress",
                  "type": "address"
                },
                {
                  "internalType": "uint256",
                  "name": "createdDate",
                  "type": "uint256"
                },
                {
                  "internalType": "uint256",
                  "name": "unlockDate",
                  "type": "uint256"
                },
                {
                  "internalType": "uint256",
                  "name": "percentInterest",
                  "type": "uint256"
                },
                {
                  "internalType": "uint256",
                  "name": "weiStaked",
                  "type": "uint256"
                },
                {
                  "internalType": "uint256",
                  "name": "weiInterest",
                  "type": "uint256"
                },
                {
                  "internalType": "bool",
                  "name": "open",
                  "type": "bool"
                }
              ],
              "internalType": "struct HackerStakingContract.Position",
              "name": "",
              "type": "tuple"
            }
          ],
          "stateMutability": "view",
          "type": "function"
        },
        {
          "inputs": [
            {
              "internalType": "address",
              "name": "walletAddress",
              "type": "address"
            }
          ],
          "name": "getPositionIdsForAddress",
          "outputs": [
            {
              "internalType": "uint256[]",
              "name": "",
              "type": "uint256[]"
            }
          ],
          "stateMutability": "view",
          "type": "function"
        },
        {
          "inputs": [
            {
              "internalType": "uint256",
              "name": "",
              "type": "uint256"
            }
          ],
          "name": "lockPeriods",
          "outputs": [
            {
              "internalType": "uint256",
              "name": "",
              "type": "uint256"
            }
          ],
          "stateMutability": "view",
          "type": "function"
        },
        {
          "inputs": [],
          "name": "owner",
          "outputs": [
            {
              "internalType": "address",
              "name": "",
              "type": "address"
            }
          ],
          "stateMutability": "view",
          "type": "function"
        },
        {
          "inputs": [
            {
              "internalType": "uint256",
              "name": "",
              "type": "uint256"
            }
          ],
          "name": "positions",
          "outputs": [
            {
              "internalType": "uint256",
              "name": "positionId",
              "type": "uint256"
            },
            {
              "internalType": "address",
              "name": "walletAddress",
              "type": "address"
            },
            {
              "internalType": "uint256",
              "name": "createdDate",
              "type": "uint256"
            },
            {
              "internalType": "uint256",
              "name": "unlockDate",
              "type": "uint256"
            },
            {
              "internalType": "uint256",
              "name": "percentInterest",
              "type": "uint256"
            },
            {
              "internalType": "uint256",
              "name": "weiStaked",
              "type": "uint256"
            },
            {
              "internalType": "uint256",
              "name": "weiInterest",
              "type": "uint256"
            },
            {
              "internalType": "bool",
              "name": "open",
              "type": "bool"
            }
          ],
          "stateMutability": "view",
          "type": "function"
        },
        {
          "inputs": [
            {
              "internalType": "uint256",
              "name": "numDays",
              "type": "uint256"
            }
          ],
          "name": "stakeEther",
          "outputs": [],
          "stateMutability": "payable",
          "type": "function"
        },
        {
          "inputs": [
            {
              "internalType": "uint256",
              "name": "",
              "type": "uint256"
            }
          ],
          "name": "tiers",
          "outputs": [
            {
              "internalType": "uint256",
              "name": "",
              "type": "uint256"
            }
          ],
          "stateMutability": "view",
          "type": "function"
        }
      ],
      "evm": {
        "bytecode": {
          "linkReferences": {},
          "object": "6080604052336000806101000a81548173ffffffffffffffffffffffffffffffffffffffff021916908373ffffffffffffffffffffffffffffffffffffffff16021790555060006001819055506102bc600c600080815260200190815260200160002081905550610320600c6000601e815260200190815260200160002081905550610384600c6000603c8152602001908152602001600020819055506104b0600c6000605a815260200190815260200160002081905550600d60009080600181540180825580915050600190039060005260206000200160009091909190915055600d601e9080600181540180825580915050600190039060005260206000200160009091909190915055600d603c9080600181540180825580915050600190039060005260206000200160009091909190915055600d605a90806001815401808255809150506001900390600052602060002001600090919091909150556112378061016e6000396000f3fe6080604052600436106100a75760003560e01c80634c8f2a78116100645780634c8f2a78146101f65780638da5cb5b1461023357806399fbab881461025e578063a126d601146102a2578063b838ec86146102cb578063e4f9084114610308576100a7565b8063031950df146100ac578063039af9eb146100e95780630c196a74146101265780631131c8cd1461016357806340d98a441461018e57806341ee13be146101cb575b600080fd5b3480156100b857600080fd5b506100d360048036038101906100ce9190610b8c565b610324565b6040516100e09190610bdb565b60405180910390f35b3480156100f557600080fd5b50610110600480360381019061010b9190610bf6565b610355565b60405161011d9190610bdb565b60405180910390f35b34801561013257600080fd5b5061014d60048036038101906101489190610bf6565b61036d565b60405161015a9190610bdb565b60405180910390f35b34801561016f57600080fd5b5061017861038a565b6040516101859190610bdb565b60405180910390f35b34801561019a57600080fd5b506101b560048036038101906101b09190610c23565b610390565b6040516101c29190610d0e565b60405180910390f35b3480156101d757600080fd5b506101e0610427565b6040516101ed9190610d0e565b60405180910390f35b34801561020257600080fd5b5061021d60048036038101906102189190610bf6565b61047f565b60405161022a9190610bdb565b60405180910390f35b34801561023f57600080fd5b506102486104a3565b6040516102559190610d3f565b60405180910390f35b34801561026a57600080fd5b5061028560048036038101906102809190610bf6565b6104c7565b604051610299989796959493929190610d75565b60405180910390f35b3480156102ae57600080fd5b506102c960048036038101906102c49190610bf6565b61053c565b005b3480156102d757600080fd5b506102f260048036038101906102ed9190610bf6565b610766565b6040516102ff9190610eb3565b60405180910390f35b610322600480360381019061031d9190610bf6565b610841565b005b600b602052816000526040600020818154811061034057600080fd5b90600052602060002001600091509150505481565b600c6020528060005260406000206000915090505481565b6000600c6000838152602001908152602001600020549050919050565b60015481565b6060600b60008373ffffffffffffffffffffffffffffffffffffffff1673ffffffffffffffffffffffffffffffffffffffff16815260200190815260200160002080548060200260200160405190810160405280929190818152602001828054801561041b57602002820191906000526020600020905b815481526020019060010190808311610407575b50505050509050919050565b6060600d80548060200260200160405190810160405280929190818152602001828054801561047557602002820191906000526020600020905b815481526020019060010190808311610461575b5050505050905090565b600d818154811061048f57600080fd5b906000526020600020016000915090505481565b60008054906101000a900473ffffffffffffffffffffffffffffffffffffffff1681565b600a6020528060005260406000206000915090508060000154908060010160009054906101000a900473ffffffffffffffffffffffffffffffffffffffff16908060020154908060030154908060040154908060050154908060060154908060070160009054906101000a900460ff16905088565b3373ffffffffffffffffffffffffffffffffffffffff16600a600083815260200190815260200160002060010160009054906101000a900473ffffffffffffffffffffffffffffffffffffffff1673ffffffffffffffffffffffffffffffffffffffff16146105e0576040517f08c379a00000000000000000000000000000000000000000000000000000000081526004016105d790610f52565b60405180910390fd5b60011515600a600083815260200190815260200160002060070160009054906101000a900460ff1615151461064a576040517f08c379a000000000000000000000000000000000000000000000000000000000815260040161064190610fbe565b60405180910390fd5b6000600a600083815260200190815260200160002060070160006101000a81548160ff0219169083151502179055506000600a600083815260200190815260200160002060060154600a6000848152602001908152602001600020600501546106b3919061100d565b905060003373ffffffffffffffffffffffffffffffffffffffff16826040516106db90611072565b60006040518083038185875af1925050503d8060008114610718576040519150601f19603f3d011682016040523d82523d6000602084013e61071d565b606091505b5050905080610761576040517f08c379a0000000000000000000000000000000000000000000000000000000008152600401610758906110d3565b60405180910390fd5b505050565b61076e610a96565b600a600083815260200190815260200160002060405180610100016040529081600082015481526020016001820160009054906101000a900473ffffffffffffffffffffffffffffffffffffffff1673ffffffffffffffffffffffffffffffffffffffff1673ffffffffffffffffffffffffffffffffffffffff16815260200160028201548152602001600382015481526020016004820154815260200160058201548152602001600682015481526020016007820160009054906101000a900460ff1615151515815250509050919050565b6000600c60008381526020019081526020016000205411610897576040517f08c379a000000000000000000000000000000000000000000000000000000000815260040161088e9061113f565b60405180910390fd5b60405180610100016040528060015481526020013373ffffffffffffffffffffffffffffffffffffffff16815260200142815260200162015180836108dc919061115f565b426108e7919061100d565b8152602001600c6000848152602001908152602001600020548152602001348152602001610928600c60008581526020019081526020016000205434610a73565b815260200160011515815250600a600060015481526020019081526020016000206000820151816000015560208201518160010160006101000a81548173ffffffffffffffffffffffffffffffffffffffff021916908373ffffffffffffffffffffffffffffffffffffffff16021790555060408201518160020155606082015181600301556080820151816004015560a0820151816005015560c0820151816006015560e08201518160070160006101000a81548160ff021916908315150217905550905050600b60003373ffffffffffffffffffffffffffffffffffffffff1673ffffffffffffffffffffffffffffffffffffffff16815260200190815260200160002060015490806001815401808255809150506001900390600052602060002001600090919091909150556001806000828254610a69919061100d565b9250508190555050565b60006127108284610a84919061115f565b610a8e91906111d0565b905092915050565b60405180610100016040528060008152602001600073ffffffffffffffffffffffffffffffffffffffff16815260200160008152602001600081526020016000815260200160008152602001600081526020016000151581525090565b600080fd5b600073ffffffffffffffffffffffffffffffffffffffff82169050919050565b6000610b2382610af8565b9050919050565b610b3381610b18565b8114610b3e57600080fd5b50565b600081359050610b5081610b2a565b92915050565b6000819050919050565b610b6981610b56565b8114610b7457600080fd5b50565b600081359050610b8681610b60565b92915050565b60008060408385031215610ba357610ba2610af3565b5b6000610bb185828601610b41565b9250506020610bc285828601610b77565b9150509250929050565b610bd581610b56565b82525050565b6000602082019050610bf06000830184610bcc565b92915050565b600060208284031215610c0c57610c0b610af3565b5b6000610c1a84828501610b77565b91505092915050565b600060208284031215610c3957610c38610af3565b5b6000610c4784828501610b41565b91505092915050565b600081519050919050565b600082825260208201905092915050565b6000819050602082019050919050565b610c8581610b56565b82525050565b6000610c978383610c7c565b60208301905092915050565b6000602082019050919050565b6000610cbb82610c50565b610cc58185610c5b565b9350610cd083610c6c565b8060005b83811015610d01578151610ce88882610c8b565b9750610cf383610ca3565b925050600181019050610cd4565b5085935050505092915050565b60006020820190508181036000830152610d288184610cb0565b905092915050565b610d3981610b18565b82525050565b6000602082019050610d546000830184610d30565b92915050565b60008115159050919050565b610d6f81610d5a565b82525050565b600061010082019050610d8b600083018b610bcc565b610d98602083018a610d30565b610da56040830189610bcc565b610db26060830188610bcc565b610dbf6080830187610bcc565b610dcc60a0830186610bcc565b610dd960c0830185610bcc565b610de660e0830184610d66565b9998505050505050505050565b610dfc81610b18565b82525050565b610e0b81610d5a565b82525050565b61010082016000820151610e286000850182610c7c565b506020820151610e3b6020850182610df3565b506040820151610e4e6040850182610c7c565b506060820151610e616060850182610c7c565b506080820151610e746080850182610c7c565b5060a0820151610e8760a0850182610c7c565b5060c0820151610e9a60c0850182610c7c565b5060e0820151610ead60e0850182610e02565b50505050565b600061010082019050610ec96000830184610e11565b92915050565b600082825260208201905092915050565b7f4f6e6c7920706f736974696f6e206f776e65722063616e20636c6f736520706f60008201527f736974696f6e0000000000000000000000000000000000000000000000000000602082015250565b6000610f3c602683610ecf565b9150610f4782610ee0565b604082019050919050565b60006020820190508181036000830152610f6b81610f2f565b9050919050565b7f506f736974696f6e20697320616c726561647920636c6f736564000000000000600082015250565b6000610fa8601a83610ecf565b9150610fb382610f72565b602082019050919050565b60006020820190508181036000830152610fd781610f9b565b9050919050565b7f4e487b7100000000000000000000000000000000000000000000000000000000600052601160045260246000fd5b600061101882610b56565b915061102383610b56565b925082820190508082111561103b5761103a610fde565b5b92915050565b600081905092915050565b50565b600061105c600083611041565b91506110678261104c565b600082019050919050565b600061107d8261104f565b9150819050919050565b7f5472616e73666572206661696c65640000000000000000000000000000000000600082015250565b60006110bd600f83610ecf565b91506110c882611087565b602082019050919050565b600060208201905081810360008301526110ec816110b0565b9050919050565b7f4d617070696e67206e6f7420666f756e64000000000000000000000000000000600082015250565b6000611129601183610ecf565b9150611134826110f3565b602082019050919050565b600060208201905081810360008301526111588161111c565b9050919050565b600061116a82610b56565b915061117583610b56565b925082820261118381610b56565b9150828204841483151761119a57611199610fde565b5b5092915050565b7f4e487b7100000000000000000000000000000000000000000000000000000000600052601260045260246000fd5b60006111db82610b56565b91506111e683610b56565b9250826111f6576111f56111a1565b5b82820490509291505056fea264697066735822122023fa262be5059c65f1e4b581a02a9ab2267b4db42145f53ecebce7f86c43af6864736f6c634300081c0033",
          "opcodes": "PUSH1 0x80 PUSH1 0x40 MSTORE CALLER PUSH1 0x0 DUP1 PUSH2 0x100 EXP DUP2 SLOAD DUP2 PUSH20 0xFFFFFFFFFFFFFFFFFFFFFFFFFFFFFFFFFFFFFFFF MUL NOT AND SWAP1 DUP4 PUSH20 0xFFFFFFFFFFFFFFFFFFFFFFFFFFFFFFFFFFFFFFFF AND MUL OR SWAP1 SSTORE POP PUSH1 0x0 PUSH1 0x1 DUP2 SWAP1 SSTORE POP PUSH2 0x2BC PUSH1 0xC PUSH1 0x0 DUP1 DUP2 MSTORE PUSH1 0x20 ADD SWAP1 DUP2 MSTORE PUSH1 0x20 ADD PUSH1 0x0 KECCAK256 DUP2 SWAP1 SSTORE POP PUSH2 0x320 PUSH1 0xC PUSH1 0x0 PUSH1 0x1E DUP2 MSTORE PUSH1 0x20 ADD SWAP1 DUP2 MSTORE PUSH1 0x20 ADD PUSH1 0x0 KECCAK256 DUP2 SWAP1 SSTORE POP PUSH2 0x384 PUSH1 0xC PUSH1 0x0 PUSH1 0x3C DUP2 MSTORE PUSH1 0x20 ADD SWAP1 DUP2 MSTORE PUSH1 0x20 ADD PUSH1 0x0 KECCAK256 DUP2 SWAP1 SSTORE POP PUSH2 0x4B0 PUSH1 0xC PUSH1 0x0 PUSH1 0x5A DUP2 MSTORE PUSH1 0x20 ADD SWAP1 DUP2 MSTORE PUSH1 0x20 ADD PUSH1 0x0 KECCAK256 DUP2 SWAP1 SSTORE POP PUSH1 0xD PUSH1 0x0 SWAP1 DUP1 PUSH1 0x1 DUP2 SLOAD ADD DUP1 DUP3 SSTORE DUP1 SWAP2 POP POP PUSH1 0x1 SWAP1 SUB SWAP1 PUSH1 0x0 MSTORE PUSH1 0x20 PUSH1 0x0 KECCAK256 ADD PUSH1 0x0 SWAP1 SWAP2 SWAP1 SWAP2 SWAP1 SWAP2 POP SSTORE PUSH1 0xD PUSH1 0x1E SWAP1 DUP1 PUSH1 0x1 DUP2 SLOAD ADD DUP1 DUP3 SSTORE DUP1 SWAP2 POP POP PUSH1 0x1 SWAP1 SUB SWAP1 PUSH1 0x0 MSTORE PUSH1 0x20 PUSH1 0x0 KECCAK256 ADD PUSH1 0x0 SWAP1 SWAP2 SWAP1 SWAP2 SWAP1 SWAP2 POP SSTORE PUSH1 0xD PUSH1 0x3C SWAP1 DUP1 PUSH1 0x1 DUP2 SLOAD ADD DUP1 DUP3 SSTORE DUP1 SWAP2 POP POP PUSH1 0x1 SWAP1 SUB SWAP1 PUSH1 0x0 MSTORE PUSH1 0x20 PUSH1 0x0 KECCAK256 ADD PUSH1 0x0 SWAP1 SWAP2 SWAP1 SWAP2 SWAP1 SWAP2 POP SSTORE PUSH1 0xD PUSH1 0x5A SWAP1 DUP1 PUSH1 0x1 DUP2 SLOAD ADD DUP1 DUP3 SSTORE DUP1 SWAP2 POP POP PUSH1 0x1 SWAP1 SUB SWAP1 PUSH1 0x0 MSTORE PUSH1 0x20 PUSH1 0x0 KECCAK256 ADD PUSH1 0x0 SWAP1 SWAP2 SWAP1 SWAP2 SWAP1 SWAP2 POP SSTORE PUSH2 0x1237 DUP1 PUSH2 0x16E PUSH1 0x0 CODECOPY PUSH1 0x0 RETURN INVALID PUSH1 0x80 PUSH1 0x40 MSTORE PUSH1 0x4 CALLDATASIZE LT PUSH2 0xA7 JUMPI PUSH1 0x0 CALLDATALOAD PUSH1 0xE0 SHR DUP1 PUSH4 0x4C8F2A78 GT PUSH2 0x64 JUMPI DUP1 PUSH4 0x4C8F2A78 EQ PUSH2 0x1F6 JUMPI DUP1 PUSH4 0x8DA5CB5B EQ PUSH2 0x233 JUMPI DUP1 PUSH4 0x99FBAB88 EQ PUSH2 0x25E JUMPI DUP1 PUSH4 0xA126D601 EQ PUSH2 0x2A2 JUMPI DUP1 PUSH4 0xB838EC86 EQ PUSH2 0x2CB JUMPI DUP1 PUSH4 0xE4F90841 EQ PUSH2 0x308 JUMPI PUSH2 0xA7 JUMP JUMPDEST DUP1 PUSH4 0x31950DF EQ PUSH2 0xAC JUMPI DUP1 PUSH4 0x39AF9EB EQ PUSH2 0xE9 JUMPI DUP1 PUSH4 0xC196A74 EQ PUSH2 0x126 JUMPI DUP1 PUSH4 0x1131C8CD EQ PUSH2 0x163 JUMPI DUP1 PUSH4 0x40D98A44 EQ PUSH2 0x18E JUMPI DUP1 PUSH4 0x41EE13BE EQ PUSH2 0x1CB JUMPI JUMPDEST PUSH1 0x0 DUP1 REVERT JUMPDEST CALLVALUE DUP1 ISZERO PUSH2 0xB8 JUMPI PUSH1 0x0 DUP1 REVERT JUMPDEST POP PUSH2 0xD3 PUSH1 0x4 DUP1 CALLDATASIZE SUB DUP2 ADD SWAP1 PUSH2 0xCE SWAP2 SWAP1 PUSH2 0xB8C JUMP JUMPDEST PUSH2 0x324 JUMP JUMPDEST PUSH1 0x40 MLOAD PUSH2 0xE0 SWAP2 SWAP1 PUSH2 0xBDB JUMP JUMPDEST PUSH1 0x40 MLOAD DUP1 SWAP2 SUB SWAP1 RETURN JUMPDEST CALLVALUE DUP1 ISZERO PUSH2 0xF5 JUMPI PUSH1 0x0 DUP1 REVERT JUMPDEST POP PUSH2 0x110 PUSH1 0x4 DUP1 CALLDATASIZE SUB DUP2 ADD SWAP1 PUSH2 0x10B SWAP2 SWAP1 PUSH2 0xBF6 JUMP JUMPDEST PUSH2 0x355 JUMP JUMPDEST PUSH1 0x40 MLOAD PUSH2 0x11D SWAP2 SWAP1 PUSH2 0xBDB JUMP JUMPDEST PUSH1 0x40 MLOAD DUP1 SWAP2 SUB SWAP1 RETURN JUMPDEST CALLVALUE DUP1 ISZERO PUSH2 0x132 JUMPI PUSH1 0x0 DUP1 REVERT JUMPDEST POP PUSH2 0x14D PUSH1 0x4 DUP1 CALLDATASIZE SUB DUP2 ADD SWAP1 PUSH2 0x148 SWAP2 SWAP1 PUSH2 0xBF6 JUMP JUMPDEST PUSH2 0x36D JUMP JUMPDEST PUSH1 0x40 MLOAD PUSH2 0x15A SWAP2 SWAP1 PUSH2 0xBDB JUMP JUMPDEST PUSH1 0x40 MLOAD DUP1 SWAP2 SUB SWAP1 RETURN JUMPDEST CALLVALUE DUP1 ISZERO PUSH2 0x16F JUMPI PUSH1 0x0 DUP1 REVERT JUMPDEST POP PUSH2 0x178 PUSH2 0x38A JUMP JUMPDEST PUSH1 0x40 MLOAD PUSH2 0x185 SWAP2 SWAP1 PUSH2 0xBDB JUMP JUMPDEST PUSH1 0x40 MLOAD DUP1 SWAP2 SUB SWAP1 RETURN JUMPDEST CALLVALUE DUP1 ISZERO PUSH2 0x19A JUMPI PUSH1 0x0 DUP1 REVERT JUMPDEST POP PUSH2 0x1B5 PUSH1 0x4 DUP1 CALLDATASIZE SUB DUP2 ADD SWAP1 PUSH2 0x1B0 SWAP2 SWAP1 PUSH2 0xC23 JUMP JUMPDEST PUSH2 0x390 JUMP JUMPDEST PUSH1 0x40 MLOAD PUSH2 0x1C2 SWAP2 SWAP1 PUSH2 0xD0E JUMP JUMPDEST PUSH1 0x40 MLOAD DUP1 SWAP2 SUB SWAP1 RETURN JUMPDEST CALLVALUE DUP1 ISZERO PUSH2 0x1D7 JUMPI PUSH1 0x0 DUP1 REVERT JUMPDEST POP PUSH2 0x1E0 PUSH2 0x427 JUMP JUMPDEST PUSH1 0x40 MLOAD PUSH2 0x1ED SWAP2 SWAP1 PUSH2 0xD0E JUMP JUMPDEST PUSH1 0x40 MLOAD DUP1 SWAP2 SUB SWAP1 RETURN JUMPDEST CALLVALUE DUP1 ISZERO PUSH2 0x202 JUMPI PUSH1 0x0 DUP1 REVERT JUMPDEST POP PUSH2 0x21D PUSH1 0x4 DUP1 CALLDATASIZE SUB DUP2 ADD SWAP1 PUSH2 0x218 SWAP2 SWAP1 PUSH2 0xBF6 JUMP JUMPDEST PUSH2 0x47F JUMP JUMPDEST PUSH1 0x40 MLOAD PUSH2 0x22A SWAP2 SWAP1 PUSH2 0xBDB JUMP JUMPDEST PUSH1 0x40 MLOAD DUP1 SWAP2 SUB SWAP1 RETURN JUMPDEST CALLVALUE DUP1 ISZERO PUSH2 0x23F JUMPI PUSH1 0x0 DUP1 REVERT JUMPDEST POP PUSH2 0x248 PUSH2 0x4A3 JUMP JUMPDEST PUSH1 0x40 MLOAD PUSH2 0x255 SWAP2 SWAP1 PUSH2 0xD3F JUMP JUMPDEST PUSH1 0x40 MLOAD DUP1 SWAP2 SUB SWAP1 RETURN JUMPDEST CALLVALUE DUP1 ISZERO PUSH2 0x26A JUMPI PUSH1 0x0 DUP1 REVERT JUMPDEST POP PUSH2 0x285 PUSH1 0x4 DUP1 CALLDATASIZE SUB DUP2 ADD SWAP1 PUSH2 0x280 SWAP2 SWAP1 PUSH2 0xBF6 JUMP JUMPDEST PUSH2 0x4C7 JUMP JUMPDEST PUSH1 0x40 MLOAD PUSH2 0x299 SWAP9 SWAP8 SWAP7 SWAP6 SWAP5 SWAP4 SWAP3 SWAP2 SWAP1 PUSH2 0xD75 JUMP JUMPDEST PUSH1 0x40 MLOAD DUP1 SWAP2 SUB SWAP1 RETURN JUMPDEST CALLVALUE DUP1 ISZERO PUSH2 0x2AE JUMPI PUSH1 0x0 DUP1 REVERT JUMPDEST POP PUSH2 0x2C9 PUSH1 0x4 DUP1 CALLDATASIZE SUB DUP2 ADD SWAP1 PUSH2 0x2C4 SWAP2 SWAP1 PUSH2 0xBF6 JUMP JUMPDEST PUSH2 0x53C JUMP JUMPDEST STOP JUMPDEST CALLVALUE DUP1 ISZERO PUSH2 0x2D7 JUMPI PUSH1 0x0 DUP1 REVERT JUMPDEST POP PUSH2 0x2F2 PUSH1 0x4 DUP1 CALLDATASIZE SUB DUP2 ADD SWAP1 PUSH2 0x2ED SWAP2 SWAP1 PUSH2 0xBF6 JUMP JUMPDEST PUSH2 0x766 JUMP JUMPDEST PUSH1 0x40 MLOAD PUSH2 0x2FF SWAP2 SWAP1 PUSH2 0xEB3 JUMP JUMPDEST PUSH1 0x40 MLOAD DUP1 SWAP2 SUB SWAP1 RETURN JUMPDEST PUSH2 0x322 PUSH1 0x4 DUP1 CALLDATASIZE SUB DUP2 ADD SWAP1 PUSH2 0x31D SWAP2 SWAP1 PUSH2 0xBF6 JUMP JUMPDEST PUSH2 0x841 JUMP JUMPDEST STOP JUMPDEST PUSH1 0xB PUSH1 0x20 MSTORE DUP2 PUSH1 0x0 MSTORE PUSH1 0x40 PUSH1 0x0 KECCAK256 DUP2 DUP2 SLOAD DUP2 LT PUSH2 0x340 JUMPI PUSH1 0x0 DUP1 REVERT JUMPDEST SWAP1 PUSH1 0x0 MSTORE PUSH1 0x20 PUSH1 0x0 KECCAK256 ADD PUSH1 0x0 SWAP2 POP SWAP2 POP POP SLOAD DUP2 JUMP JUMPDEST PUSH1 0xC PUSH1 0x20 MSTORE DUP1 PUSH1 0x0 MSTORE PUSH1 0x40 PUSH1 0x0 KECCAK256 PUSH1 0x0 SWAP2 POP SWAP1 POP SLOAD DUP2 JUMP JUMPDEST PUSH1 0x0 PUSH1 0xC PUSH1 0x0 DUP4 DUP2 MSTORE PUSH1 0x20 ADD SWAP1 DUP2 MSTORE PUSH1 0x20 ADD PUSH1 0x0 KECCAK256 SLOAD SWAP1 POP SWAP2 SWAP1 POP JUMP JUMPDEST PUSH1 0x1 SLOAD DUP2 JUMP JUMPDEST PUSH1 0x60 PUSH1 0xB PUSH1 0x0 DUP4 PUSH20 0xFFFFFFFFFFFFFFFFFFFFFFFFFFFFFFFFFFFFFFFF AND PUSH20 0xFFFFFFFFFFFFFFFFFFFFFFFFFFFFFFFFFFFFFFFF AND DUP2 MSTORE PUSH1 0x20 ADD SWAP1 DUP2 MSTORE PUSH1 0x20 ADD PUSH1 0x0 KECCAK256 DUP1 SLOAD DUP1 PUSH1 0x20 MUL PUSH1 0x20 ADD PUSH1 0x40 MLOAD SWAP1 DUP2 ADD PUSH1 0x40 MSTORE DUP1 SWAP3 SWAP2 SWAP1 DUP2 DUP2 MSTORE PUSH1 0x20 ADD DUP3 DUP1 SLOAD DUP1 ISZERO PUSH2 0x41B JUMPI PUSH1 0x20 MUL DUP3 ADD SWAP2 SWAP1 PUSH1 0x0 MSTORE PUSH1 0x20 PUSH1 0x0 KECCAK256 SWAP1 JUMPDEST DUP2 SLOAD DUP2 MSTORE PUSH1 0x20 ADD SWAP1 PUSH1 0x1 ADD SWAP1 DUP1 DUP4 GT PUSH2 0x407 JUMPI JUMPDEST POP POP POP POP POP SWAP1 POP SWAP2 SWAP1 POP JUMP JUMPDEST PUSH1 0x60 PUSH1 0xD DUP1 SLOAD DUP1 PUSH1 0x20 MUL PUSH1 0x20 ADD PUSH1 0x40 MLOAD SWAP1 DUP2 ADD PUSH1 0x40 MSTORE DUP1 SWAP3 SWAP2 SWAP1 DUP2 DUP2 MSTORE PUSH1 0x20 ADD DUP3 DUP1 SLOAD DUP1 ISZERO PUSH2 0x475 JUMPI PUSH1 0x20 MUL DUP3 ADD SWAP2 SWAP1 PUSH1 0x0 MSTORE PUSH1 0x20 PUSH1 0x0 KECCAK256 SWAP1 JUMPDEST DUP2 SLOAD DUP2 MSTORE PUSH1 0x20 ADD SWAP1 PUSH1 0x1 ADD SWAP1 DUP1 DUP4 GT PUSH2 0x461 JUMPI JUMPDEST POP POP POP POP POP SWAP1 POP SWAP1 JUMP JUMPDEST PUSH1 0xD DUP2 DUP2 SLOAD DUP2 LT PUSH2 0x48F JUMPI PUSH1 0x0 DUP1 REVERT JUMPDEST SWAP1 PUSH1 0x0 MSTORE PUSH1 0x20 PUSH1 0x0 KECCAK256 ADD PUSH1 0x0 SWAP2 POP SWAP1 POP SLOAD DUP2 JUMP JUMPDEST PUSH1 0x0 DUP1 SLOAD SWAP1 PUSH2 0x100 EXP SWAP1 DIV PUSH20 0xFFFFFFFFFFFFFFFFFFFFFFFFFFFFFFFFFFFFFFFF AND DUP2 JUMP JUMPDEST PUSH1 0xA PUSH1 0x20 MSTORE DUP1 PUSH1 0x0 MSTORE PUSH1 0x40 PUSH1 0x0 KECCAK256 PUSH1 0x0 SWAP2 POP SWAP1 POP DUP1 PUSH1 0x0 ADD SLOAD SWAP1 DUP1 PUSH1 0x1 ADD PUSH1 0x0 SWAP1 SLOAD SWAP1 PUSH2 0x100 EXP SWAP1 DIV PUSH20 0xFFFFFFFFFFFFFFFFFFFFFFFFFFFFFFFFFFFFFFFF AND SWAP1 DUP1 PUSH1 0x2 ADD SLOAD SWAP1 DUP1 PUSH1 0x3 ADD SLOAD SWAP1 DUP1 PUSH1 0x4 ADD SLOAD SWAP1 DUP1 PUSH1 0x5 ADD SLOAD SWAP1 DUP1 PUSH1 0x6 ADD SLOAD SWAP1 DUP1 PUSH1 0x7 ADD PUSH1 0x0 SWAP1 SLOAD SWAP1 PUSH2 0x100 EXP SWAP1 DIV PUSH1 0xFF AND SWAP1 POP DUP9 JUMP JUMPDEST CALLER PUSH20 0xFFFFFFFFFFFFFFFFFFFFFFFFFFFFFFFFFFFFFFFF AND PUSH1 0xA PUSH1 0x0 DUP4 DUP2 MSTORE PUSH1 0x20 ADD SWAP1 DUP2 MSTORE PUSH1 0x20 ADD PUSH1 0x0 KECCAK256 PUSH1 0x1 ADD PUSH1 0x0 SWAP1 SLOAD SWAP1 PUSH2 0x100 EXP SWAP1 DIV PUSH20 0xFFFFFFFFFFFFFFFFFFFFFFFFFFFFFFFFFFFFFFFF AND PUSH20 0xFFFFFFFFFFFFFFFFFFFFFFFFFFFFFFFFFFFFFFFF AND EQ PUSH2 0x5E0 JUMPI PUSH1 0x40 MLOAD PUSH32 0x8C379A000000000000000000000000000000000000000000000000000000000 DUP2 MSTORE PUSH1 0x4 ADD PUSH2 0x5D7 SWAP1 PUSH2 0xF52 JUMP JUMPDEST PUSH1 0x40 MLOAD DUP1 SWAP2 SUB SWAP1 REVERT JUMPDEST PUSH1 0x1 ISZERO ISZERO PUSH1 0xA PUSH1 0x0 DUP4 DUP2 MSTORE PUSH1 0x20 ADD SWAP1 DUP2 MSTORE PUSH1 0x20 ADD PUSH1 0x0 KECCAK256 PUSH1 0x7 ADD PUSH1 0x0 SWAP1 SLOAD SWAP1 PUSH2 0x100 EXP SWAP1 DIV PUSH1 0xFF AND ISZERO ISZERO EQ PUSH2 0x64A JUMPI PUSH1 0x40 MLOAD PUSH32 0x8C379A000000000000000000000000000000000000000000000000000000000 DUP2 MSTORE PUSH1 0x4 ADD PUSH2 0x641 SWAP1 PUSH2 0xFBE JUMP JUMPDEST PUSH1 0x40 MLOAD DUP1 SWAP2 SUB SWAP1 REVERT JUMPDEST PUSH1 0x0 PUSH1 0xA PUSH1 0x0 DUP4 DUP2 MSTORE PUSH1 0x20 ADD SWAP1 DUP2 MSTORE PUSH1 0x20 ADD PUSH1 0x0 KECCAK256 PUSH1 0x7 ADD PUSH1 0x0 PUSH2 0x100 EXP DUP2 SLOAD DUP2 PUSH1 0xFF MUL NOT AND SWAP1 DUP4 ISZERO ISZERO MUL OR SWAP1 SSTORE POP PUSH1 0x0 PUSH1 0xA PUSH1 0x0 DUP4 DUP2 MSTORE PUSH1 0x20 ADD SWAP1 DUP2 MSTORE PUSH1 0x20 ADD PUSH1 0x0 KECCAK256 PUSH1 0x6 ADD SLOAD PUSH1 0xA PUSH1 0x0 DUP5 DUP2 MSTORE PUSH1 0x20 ADD SWAP1 DUP2 MSTORE PUSH1 0x20 ADD PUSH1 0x0 KECCAK256 PUSH1 0x5 ADD SLOAD PUSH2 0x6B3 SWAP2 SWAP1 PUSH2 0x100D JUMP JUMPDEST SWAP1 POP PUSH1 0x0 CALLER PUSH20 0xFFFFFFFFFFFFFFFFFFFFFFFFFFFFFFFFFFFFFFFF AND DUP3 PUSH1 0x40 MLOAD PUSH2 0x6DB SWAP1 PUSH2 0x1072 JUMP JUMPDEST PUSH1 0x0 PUSH1 0x40 MLOAD DUP1 DUP4 SUB DUP2 DUP6 DUP8 GAS CALL SWAP3 POP POP POP RETURNDATASIZE DUP1 PUSH1 0x0 DUP2 EQ PUSH2 0x718 JUMPI PUSH1 0x40 MLOAD SWAP2 POP PUSH1 0x1F NOT PUSH1 0x3F RETURNDATASIZE ADD AND DUP3 ADD PUSH1 0x40 MSTORE RETURNDATASIZE DUP3 MSTORE RETURNDATASIZE PUSH1 0x0 PUSH1 0x20 DUP5 ADD RETURNDATACOPY PUSH2 0x71D JUMP JUMPDEST PUSH1 0x60 SWAP2 POP JUMPDEST POP POP SWAP1 POP DUP1 PUSH2 0x761 JUMPI PUSH1 0x40 MLOAD PUSH32 0x8C379A000000000000000000000000000000000000000000000000000000000 DUP2 MSTORE PUSH1 0x4 ADD PUSH2 0x758 SWAP1 PUSH2 0x10D3 JUMP JUMPDEST PUSH1 0x40 MLOAD DUP1 SWAP2 SUB SWAP1 REVERT JUMPDEST POP POP POP JUMP JUMPDEST PUSH2 0x76E PUSH2 0xA96 JUMP JUMPDEST PUSH1 0xA PUSH1 0x0 DUP4 DUP2 MSTORE PUSH1 0x20 ADD SWAP1 DUP2 MSTORE PUSH1 0x20 ADD PUSH1 0x0 KECCAK256 PUSH1 0x40 MLOAD DUP1 PUSH2 0x100 ADD PUSH1 0x40 MSTORE SWAP1 DUP2 PUSH1 0x0 DUP3 ADD SLOAD DUP2 MSTORE PUSH1 0x20 ADD PUSH1 0x1 DUP3 ADD PUSH1 0x0 SWAP1 SLOAD SWAP1 PUSH2 0x100 EXP SWAP1 DIV PUSH20 0xFFFFFFFFFFFFFFFFFFFFFFFFFFFFFFFFFFFFFFFF AND PUSH20 0xFFFFFFFFFFFFFFFFFFFFFFFFFFFFFFFFFFFFFFFF AND PUSH20 0xFFFFFFFFFFFFFFFFFFFFFFFFFFFFFFFFFFFFFFFF AND DUP2 MSTORE PUSH1 0x20 ADD PUSH1 0x2 DUP3 ADD SLOAD DUP2 MSTORE PUSH1 0x20 ADD PUSH1 0x3 DUP3 ADD SLOAD DUP2 MSTORE PUSH1 0x20 ADD PUSH1 0x4 DUP3 ADD SLOAD DUP2 MSTORE PUSH1 0x20 ADD PUSH1 0x5 DUP3 ADD SLOAD DUP2 MSTORE PUSH1 0x20 ADD PUSH1 0x6 DUP3 ADD SLOAD DUP2 MSTORE PUSH1 0x20 ADD PUSH1 0x7 DUP3 ADD PUSH1 0x0 SWAP1 SLOAD SWAP1 PUSH2 0x100 EXP SWAP1 DIV PUSH1 0xFF AND ISZERO ISZERO ISZERO ISZERO DUP2 MSTORE POP POP SWAP1 POP SWAP2 SWAP1 POP JUMP JUMPDEST PUSH1 0x0 PUSH1 0xC PUSH1 0x0 DUP4 DUP2 MSTORE PUSH1 0x20 ADD SWAP1 DUP2 MSTORE PUSH1 0x20 ADD PUSH1 0x0 KECCAK256 SLOAD GT PUSH2 0x897 JUMPI PUSH1 0x40 MLOAD PUSH32 0x8C379A000000000000000000000000000000000000000000000000000000000 DUP2 MSTORE PUSH1 0x4 ADD PUSH2 0x88E SWAP1 PUSH2 0x113F JUMP JUMPDEST PUSH1 0x40 MLOAD DUP1 SWAP2 SUB SWAP1 REVERT JUMPDEST PUSH1 0x40 MLOAD DUP1 PUSH2 0x100 ADD PUSH1 0x40 MSTORE DUP1 PUSH1 0x1 SLOAD DUP2 MSTORE PUSH1 0x20 ADD CALLER PUSH20 0xFFFFFFFFFFFFFFFFFFFFFFFFFFFFFFFFFFFFFFFF AND DUP2 MSTORE PUSH1 0x20 ADD TIMESTAMP DUP2 MSTORE PUSH1 0x20 ADD PUSH3 0x15180 DUP4 PUSH2 0x8DC SWAP2 SWAP1 PUSH2 0x115F JUMP JUMPDEST TIMESTAMP PUSH2 0x8E7 SWAP2 SWAP1 PUSH2 0x100D JUMP JUMPDEST DUP2 MSTORE PUSH1 0x20 ADD PUSH1 0xC PUSH1 0x0 DUP5 DUP2 MSTORE PUSH1 0x20 ADD SWAP1 DUP2 MSTORE PUSH1 0x20 ADD PUSH1 0x0 KECCAK256 SLOAD DUP2 MSTORE PUSH1 0x20 ADD CALLVALUE DUP2 MSTORE PUSH1 0x20 ADD PUSH2 0x928 PUSH1 0xC PUSH1 0x0 DUP6 DUP2 MSTORE PUSH1 0x20 ADD SWAP1 DUP2 MSTORE PUSH1 0x20 ADD PUSH1 0x0 KECCAK256 SLOAD CALLVALUE PUSH2 0xA73 JUMP JUMPDEST DUP2 MSTORE PUSH1 0x20 ADD PUSH1 0x1 ISZERO ISZERO DUP2 MSTORE POP PUSH1 0xA PUSH1 0x0 PUSH1 0x1 SLOAD DUP2 MSTORE PUSH1 0x20 ADD SWAP1 DUP2 MSTORE PUSH1 0x20 ADD PUSH1 0x0 KECCAK256 PUSH1 0x0 DUP3 ADD MLOAD DUP2 PUSH1 0x0 ADD SSTORE PUSH1 0x20 DUP3 ADD MLOAD DUP2 PUSH1 0x1 ADD PUSH1 0x0 PUSH2 0x100 EXP DUP2 SLOAD DUP2 PUSH20 0xFFFFFFFFFFFFFFFFFFFFFFFFFFFFFFFFFFFFFFFF MUL NOT AND SWAP1 DUP4 PUSH20 0xFFFFFFFFFFFFFFFFFFFFFFFFFFFFFFFFFFFFFFFF AND MUL OR SWAP1 SSTORE POP PUSH1 0x40 DUP3 ADD MLOAD DUP2 PUSH1 0x2 ADD SSTORE PUSH1 0x60 DUP3 ADD MLOAD DUP2 PUSH1 0x3 ADD SSTORE PUSH1 0x80 DUP3 ADD MLOAD DUP2 PUSH1 0x4 ADD SSTORE PUSH1 0xA0 DUP3 ADD MLOAD DUP2 PUSH1 0x5 ADD SSTORE PUSH1 0xC0 DUP3 ADD MLOAD DUP2 PUSH1 0x6 ADD SSTORE PUSH1 0xE0 DUP3 ADD MLOAD DUP2 PUSH1 0x7 ADD PUSH1 0x0 PUSH2 0x100 EXP DUP2 SLOAD DUP2 PUSH1 0xFF MUL NOT AND SWAP1 DUP4 ISZERO ISZERO MUL OR SWAP1 SSTORE POP SWAP1 POP POP PUSH1 0xB PUSH1 0x0 CALLER PUSH20 0xFFFFFFFFFFFFFFFFFFFFFFFFFFFFFFFFFFFFFFFF AND PUSH20 0xFFFFFFFFFFFFFFFFFFFFFFFFFFFFFFFFFFFFFFFF AND DUP2 MSTORE PUSH1 0x20 ADD SWAP1 DUP2 MSTORE PUSH1 0x20 ADD PUSH1 0x0 KECCAK256 PUSH1 0x1 SLOAD SWAP1 DUP1 PUSH1 0x1 DUP2 SLOAD ADD DUP1 DUP3 SSTORE DUP1 SWAP2 POP POP PUSH1 0x1 SWAP1 SUB SWAP1 PUSH1 0x0 MSTORE PUSH1 0x20 PUSH1 0x0 KECCAK256 ADD PUSH1 0x0 SWAP1 SWAP2 SWAP1 SWAP2 SWAP1 SWAP2 POP SSTORE PUSH1 0x1 DUP1 PUSH1 0x0 DUP3 DUP3 SLOAD PUSH2 0xA69 SWAP2 SWAP1 PUSH2 0x100D JUMP JUMPDEST SWAP3 POP POP DUP2 SWAP1 SSTORE POP POP JUMP JUMPDEST PUSH1 0x0 PUSH2 0x2710 DUP3 DUP5 PUSH2 0xA84 SWAP2 SWAP1 PUSH2 0x115F JUMP JUMPDEST PUSH2 0xA8E SWAP2 SWAP1 PUSH2 0x11D0 JUMP JUMPDEST SWAP1 POP SWAP3 SWAP2 POP POP JUMP JUMPDEST PUSH1 0x40 MLOAD DUP1 PUSH2 0x100 ADD PUSH1 0x40 MSTORE DUP1 PUSH1 0x0 DUP2 MSTORE PUSH1 0x20 ADD PUSH1 0x0 PUSH20 0xFFFFFFFFFFFFFFFFFFFFFFFFFFFFFFFFFFFFFFFF AND DUP2 MSTORE PUSH1 0x20 ADD PUSH1 0x0 DUP2 MSTORE PUSH1 0x20 ADD PUSH1 0x0 DUP2 MSTORE PUSH1 0x20 ADD PUSH1 0x0 DUP2 MSTORE PUSH1 0x20 ADD PUSH1 0x0 DUP2 MSTORE PUSH1 0x20 ADD PUSH1 0x0 DUP2 MSTORE PUSH1 0x20 ADD PUSH1 0x0 ISZERO ISZERO DUP2 MSTORE POP SWAP1 JUMP JUMPDEST PUSH1 0x0 DUP1 REVERT JUMPDEST PUSH1 0x0 PUSH20 0xFFFFFFFFFFFFFFFFFFFFFFFFFFFFFFFFFFFFFFFF DUP3 AND SWAP1 POP SWAP2 SWAP1 POP JUMP JUMPDEST PUSH1 0x0 PUSH2 0xB23 DUP3 PUSH2 0xAF8 JUMP JUMPDEST SWAP1 POP SWAP2 SWAP1 POP JUMP JUMPDEST PUSH2 0xB33 DUP2 PUSH2 0xB18 JUMP JUMPDEST DUP2 EQ PUSH2 0xB3E JUMPI PUSH1 0x0 DUP1 REVERT JUMPDEST POP JUMP JUMPDEST PUSH1 0x0 DUP2 CALLDATALOAD SWAP1 POP PUSH2 0xB50 DUP2 PUSH2 0xB2A JUMP JUMPDEST SWAP3 SWAP2 POP POP JUMP JUMPDEST PUSH1 0x0 DUP2 SWAP1 POP SWAP2 SWAP1 POP JUMP JUMPDEST PUSH2 0xB69 DUP2 PUSH2 0xB56 JUMP JUMPDEST DUP2 EQ PUSH2 0xB74 JUMPI PUSH1 0x0 DUP1 REVERT JUMPDEST POP JUMP JUMPDEST PUSH1 0x0 DUP2 CALLDATALOAD SWAP1 POP PUSH2 0xB86 DUP2 PUSH2 0xB60 JUMP JUMPDEST SWAP3 SWAP2 POP POP JUMP JUMPDEST PUSH1 0x0 DUP1 PUSH1 0x40 DUP4 DUP6 SUB SLT ISZERO PUSH2 0xBA3 JUMPI PUSH2 0xBA2 PUSH2 0xAF3 JUMP JUMPDEST JUMPDEST PUSH1 0x0 PUSH2 0xBB1 DUP6 DUP3 DUP7 ADD PUSH2 0xB41 JUMP JUMPDEST SWAP3 POP POP PUSH1 0x20 PUSH2 0xBC2 DUP6 DUP3 DUP7 ADD PUSH2 0xB77 JUMP JUMPDEST SWAP2 POP POP SWAP3 POP SWAP3 SWAP1 POP JUMP JUMPDEST PUSH2 0xBD5 DUP2 PUSH2 0xB56 JUMP JUMPDEST DUP3 MSTORE POP POP JUMP JUMPDEST PUSH1 0x0 PUSH1 0x20 DUP3 ADD SWAP1 POP PUSH2 0xBF0 PUSH1 0x0 DUP4 ADD DUP5 PUSH2 0xBCC JUMP JUMPDEST SWAP3 SWAP2 POP POP JUMP JUMPDEST PUSH1 0x0 PUSH1 0x20 DUP3 DUP5 SUB SLT ISZERO PUSH2 0xC0C JUMPI PUSH2 0xC0B PUSH2 0xAF3 JUMP JUMPDEST JUMPDEST PUSH1 0x0 PUSH2 0xC1A DUP5 DUP3 DUP6 ADD PUSH2 0xB77 JUMP JUMPDEST SWAP2 POP POP SWAP3 SWAP2 POP POP JUMP JUMPDEST PUSH1 0x0 PUSH1 0x20 DUP3 DUP5 SUB SLT ISZERO PUSH2 0xC39 JUMPI PUSH2 0xC38 PUSH2 0xAF3 JUMP JUMPDEST JUMPDEST PUSH1 0x0 PUSH2 0xC47 DUP5 DUP3 DUP6 ADD PUSH2 0xB41 JUMP JUMPDEST SWAP2 POP POP SWAP3 SWAP2 POP POP JUMP JUMPDEST PUSH1 0x0 DUP2 MLOAD SWAP1 POP SWAP2 SWAP1 POP JUMP JUMPDEST PUSH1 0x0 DUP3 DUP3 MSTORE PUSH1 0x20 DUP3 ADD SWAP1 POP SWAP3 SWAP2 POP POP JUMP JUMPDEST PUSH1 0x0 DUP2 SWAP1 POP PUSH1 0x20 DUP3 ADD SWAP1 POP SWAP2 SWAP1 POP JUMP JUMPDEST PUSH2 0xC85 DUP2 PUSH2 0xB56 JUMP JUMPDEST DUP3 MSTORE POP POP JUMP JUMPDEST PUSH1 0x0 PUSH2 0xC97 DUP4 DUP4 PUSH2 0xC7C JUMP JUMPDEST PUSH1 0x20 DUP4 ADD SWAP1 POP SWAP3 SWAP2 POP POP JUMP JUMPDEST PUSH1 0x0 PUSH1 0x20 DUP3 ADD SWAP1 POP SWAP2 SWAP1 POP JUMP JUMPDEST PUSH1 0x0 PUSH2 0xCBB DUP3 PUSH2 0xC50 JUMP JUMPDEST PUSH2 0xCC5 DUP2 DUP6 PUSH2 0xC5B JUMP JUMPDEST SWAP4 POP PUSH2 0xCD0 DUP4 PUSH2 0xC6C JUMP JUMPDEST DUP1 PUSH1 0x0 JUMPDEST DUP4 DUP2 LT ISZERO PUSH2 0xD01 JUMPI DUP2 MLOAD PUSH2 0xCE8 DUP9 DUP3 PUSH2 0xC8B JUMP JUMPDEST SWAP8 POP PUSH2 0xCF3 DUP4 PUSH2 0xCA3 JUMP JUMPDEST SWAP3 POP POP PUSH1 0x1 DUP2 ADD SWAP1 POP PUSH2 0xCD4 JUMP JUMPDEST POP DUP6 SWAP4 POP POP POP POP SWAP3 SWAP2 POP POP JUMP JUMPDEST PUSH1 0x0 PUSH1 0x20 DUP3 ADD SWAP1 POP DUP2 DUP2 SUB PUSH1 0x0 DUP4 ADD MSTORE PUSH2 0xD28 DUP2 DUP5 PUSH2 0xCB0 JUMP JUMPDEST SWAP1 POP SWAP3 SWAP2 POP POP JUMP JUMPDEST PUSH2 0xD39 DUP2 PUSH2 0xB18 JUMP JUMPDEST DUP3 MSTORE POP POP JUMP JUMPDEST PUSH1 0x0 PUSH1 0x20 DUP3 ADD SWAP1 POP PUSH2 0xD54 PUSH1 0x0 DUP4 ADD DUP5 PUSH2 0xD30 JUMP JUMPDEST SWAP3 SWAP2 POP POP JUMP JUMPDEST PUSH1 0x0 DUP2 ISZERO ISZERO SWAP1 POP SWAP2 SWAP1 POP JUMP JUMPDEST PUSH2 0xD6F DUP2 PUSH2 0xD5A JUMP JUMPDEST DUP3 MSTORE POP POP JUMP JUMPDEST PUSH1 0x0 PUSH2 0x100 DUP3 ADD SWAP1 POP PUSH2 0xD8B PUSH1 0x0 DUP4 ADD DUP12 PUSH2 0xBCC JUMP JUMPDEST PUSH2 0xD98 PUSH1 0x20 DUP4 ADD DUP11 PUSH2 0xD30 JUMP JUMPDEST PUSH2 0xDA5 PUSH1 0x40 DUP4 ADD DUP10 PUSH2 0xBCC JUMP JUMPDEST PUSH2 0xDB2 PUSH1 0x60 DUP4 ADD DUP9 PUSH2 0xBCC JUMP JUMPDEST PUSH2 0xDBF PUSH1 0x80 DUP4 ADD DUP8 PUSH2 0xBCC JUMP JUMPDEST PUSH2 0xDCC PUSH1 0xA0 DUP4 ADD DUP7 PUSH2 0xBCC JUMP JUMPDEST PUSH2 0xDD9 PUSH1 0xC0 DUP4 ADD DUP6 PUSH2 0xBCC JUMP JUMPDEST PUSH2 0xDE6 PUSH1 0xE0 DUP4 ADD DUP5 PUSH2 0xD66 JUMP JUMPDEST SWAP10 SWAP9 POP POP POP POP POP POP POP POP POP JUMP JUMPDEST PUSH2 0xDFC DUP2 PUSH2 0xB18 JUMP JUMPDEST DUP3 MSTORE POP POP JUMP JUMPDEST PUSH2 0xE0B DUP2 PUSH2 0xD5A JUMP JUMPDEST DUP3 MSTORE POP POP JUMP JUMPDEST PUSH2 0x100 DUP3 ADD PUSH1 0x0 DUP3 ADD MLOAD PUSH2 0xE28 PUSH1 0x0 DUP6 ADD DUP3 PUSH2 0xC7C JUMP JUMPDEST POP PUSH1 0x20 DUP3 ADD MLOAD PUSH2 0xE3B PUSH1 0x20 DUP6 ADD DUP3 PUSH2 0xDF3 JUMP JUMPDEST POP PUSH1 0x40 DUP3 ADD MLOAD PUSH2 0xE4E PUSH1 0x40 DUP6 ADD DUP3 PUSH2 0xC7C JUMP JUMPDEST POP PUSH1 0x60 DUP3 ADD MLOAD PUSH2 0xE61 PUSH1 0x60 DUP6 ADD DUP3 PUSH2 0xC7C JUMP JUMPDEST POP PUSH1 0x80 DUP3 ADD MLOAD PUSH2 0xE74 PUSH1 0x80 DUP6 ADD DUP3 PUSH2 0xC7C JUMP JUMPDEST POP PUSH1 0xA0 DUP3 ADD MLOAD PUSH2 0xE87 PUSH1 0xA0 DUP6 ADD DUP3 PUSH2 0xC7C JUMP JUMPDEST POP PUSH1 0xC0 DUP3 ADD MLOAD PUSH2 0xE9A PUSH1 0xC0 DUP6 ADD DUP3 PUSH2 0xC7C JUMP JUMPDEST POP PUSH1 0xE0 DUP3 ADD MLOAD PUSH2 0xEAD PUSH1 0xE0 DUP6 ADD DUP3 PUSH2 0xE02 JUMP JUMPDEST POP POP POP POP JUMP JUMPDEST PUSH1 0x0 PUSH2 0x100 DUP3 ADD SWAP1 POP PUSH2 0xEC9 PUSH1 0x0 DUP4 ADD DUP5 PUSH2 0xE11 JUMP JUMPDEST SWAP3 SWAP2 POP POP JUMP JUMPDEST PUSH1 0x0 DUP3 DUP3 MSTORE PUSH1 0x20 DUP3 ADD SWAP1 POP SWAP3 SWAP2 POP POP JUMP JUMPDEST PUSH32 0x4F6E6C7920706F736974696F6E206F776E65722063616E20636C6F736520706F PUSH1 0x0 DUP3 ADD MSTORE PUSH32 0x736974696F6E0000000000000000000000000000000000000000000000000000 PUSH1 0x20 DUP3 ADD MSTORE POP JUMP JUMPDEST PUSH1 0x0 PUSH2 0xF3C PUSH1 0x26 DUP4 PUSH2 0xECF JUMP JUMPDEST SWAP2 POP PUSH2 0xF47 DUP3 PUSH2 0xEE0 JUMP JUMPDEST PUSH1 0x40 DUP3 ADD SWAP1 POP SWAP2 SWAP1 POP JUMP JUMPDEST PUSH1 0x0 PUSH1 0x20 DUP3 ADD SWAP1 POP DUP2 DUP2 SUB PUSH1 0x0 DUP4 ADD MSTORE PUSH2 0xF6B DUP2 PUSH2 0xF2F JUMP JUMPDEST SWAP1 POP SWAP2 SWAP1 POP JUMP JUMPDEST PUSH32 0x506F736974696F6E20697320616C726561647920636C6F736564000000000000 PUSH1 0x0 DUP3 ADD MSTORE POP JUMP JUMPDEST PUSH1 0x0 PUSH2 0xFA8 PUSH1 0x1A DUP4 PUSH2 0xECF JUMP JUMPDEST SWAP2 POP PUSH2 0xFB3 DUP3 PUSH2 0xF72 JUMP JUMPDEST PUSH1 0x20 DUP3 ADD SWAP1 POP SWAP2 SWAP1 POP JUMP JUMPDEST PUSH1 0x0 PUSH1 0x20 DUP3 ADD SWAP1 POP DUP2 DUP2 SUB PUSH1 0x0 DUP4 ADD MSTORE PUSH2 0xFD7 DUP2 PUSH2 0xF9B JUMP JUMPDEST SWAP1 POP SWAP2 SWAP1 POP JUMP JUMPDEST PUSH32 0x4E487B7100000000000000000000000000000000000000000000000000000000 PUSH1 0x0 MSTORE PUSH1 0x11 PUSH1 0x4 MSTORE PUSH1 0x24 PUSH1 0x0 REVERT JUMPDEST PUSH1 0x0 PUSH2 0x1018 DUP3 PUSH2 0xB56 JUMP JUMPDEST SWAP2 POP PUSH2 0x1023 DUP4 PUSH2 0xB56 JUMP JUMPDEST SWAP3 POP DUP3 DUP3 ADD SWAP1 POP DUP1 DUP3 GT ISZERO PUSH2 0x103B JUMPI PUSH2 0x103A PUSH2 0xFDE JUMP JUMPDEST JUMPDEST SWAP3 SWAP2 POP POP JUMP JUMPDEST PUSH1 0x0 DUP2 SWAP1 POP SWAP3 SWAP2 POP POP JUMP JUMPDEST POP JUMP JUMPDEST PUSH1 0x0 PUSH2 0x105C PUSH1 0x0 DUP4 PUSH2 0x1041 JUMP JUMPDEST SWAP2 POP PUSH2 0x1067 DUP3 PUSH2 0x104C JUMP JUMPDEST PUSH1 0x0 DUP3 ADD SWAP1 POP SWAP2 SWAP1 POP JUMP JUMPDEST PUSH1 0x0 PUSH2 0x107D DUP3 PUSH2 0x104F JUMP JUMPDEST SWAP2 POP DUP2 SWAP1 POP SWAP2 SWAP1 POP JUMP JUMPDEST PUSH32 0x5472616E73666572206661696C65640000000000000000000000000000000000 PUSH1 0x0 DUP3 ADD MSTORE POP JUMP JUMPDEST PUSH1 0x0 PUSH2 0x10BD PUSH1 0xF DUP4 PUSH2 0xECF JUMP JUMPDEST SWAP2 POP PUSH2 0x10C8 DUP3 PUSH2 0x1087 JUMP JUMPDEST PUSH1 0x20 DUP3 ADD SWAP1 POP SWAP2 SWAP1 POP JUMP JUMPDEST PUSH1 0x0 PUSH1 0x20 DUP3 ADD SWAP1 POP DUP2 DUP2 SUB PUSH1 0x0 DUP4 ADD MSTORE PUSH2 0x10EC DUP2 PUSH2 0x10B0 JUMP JUMPDEST SWAP1 POP SWAP2 SWAP1 POP JUMP JUMPDEST PUSH32 0x4D617070696E67206E6F7420666F756E64000000000000000000000000000000 PUSH1 0x0 DUP3 ADD MSTORE POP JUMP JUMPDEST PUSH1 0x0 PUSH2 0x1129 PUSH1 0x11 DUP4 PUSH2 0xECF JUMP JUMPDEST SWAP2 POP PUSH2 0x1134 DUP3 PUSH2 0x10F3 JUMP JUMPDEST PUSH1 0x20 DUP3 ADD SWAP1 POP SWAP2 SWAP1 POP JUMP JUMPDEST PUSH1 0x0 PUSH1 0x20 DUP3 ADD SWAP1 POP DUP2 DUP2 SUB PUSH1 0x0 DUP4 ADD MSTORE PUSH2 0x1158 DUP2 PUSH2 0x111C JUMP JUMPDEST SWAP1 POP SWAP2 SWAP1 POP JUMP JUMPDEST PUSH1 0x0 PUSH2 0x116A DUP3 PUSH2 0xB56 JUMP JUMPDEST SWAP2 POP PUSH2 0x1175 DUP4 PUSH2 0xB56 JUMP JUMPDEST SWAP3 POP DUP3 DUP3 MUL PUSH2 0x1183 DUP2 PUSH2 0xB56 JUMP JUMPDEST SWAP2 POP DUP3 DUP3 DIV DUP5 EQ DUP4 ISZERO OR PUSH2 0x119A JUMPI PUSH2 0x1199 PUSH2 0xFDE JUMP JUMPDEST JUMPDEST POP SWAP3 SWAP2 POP POP JUMP JUMPDEST PUSH32 0x4E487B7100000000000000000000000000000000000000000000000000000000 PUSH1 0x0 MSTORE PUSH1 0x12 PUSH1 0x4 MSTORE PUSH1 0x24 PUSH1 0x0 REVERT JUMPDEST PUSH1 0x0 PUSH2 0x11DB DUP3 PUSH2 0xB56 JUMP JUMPDEST SWAP2 POP PUSH2 0x11E6 DUP4 PUSH2 0xB56 JUMP JUMPDEST SWAP3 POP DUP3 PUSH2 0x11F6 JUMPI PUSH2 0x11F5 PUSH2 0x11A1 JUMP JUMPDEST JUMPDEST DUP3 DUP3 DIV SWAP1 POP SWAP3 SWAP2 POP POP JUMP INVALID LOG2 PUSH5 0x6970667358 0x22 SLT KECCAK256 0x23 STATICCALL 0x26 0x2B 0xE5 SDIV SWAP13 PUSH6 0xF1E4B581A02A SWAP11 0xB2 0x26 PUSH28 0x4DB42145F53ECEBCE7F86C43AF6864736F6C634300081C0033000000 "
        },
        "methodIdentifiers": {
          "addressToPositionIds(address,uint256)": "031950df",
          "closePosition(uint256)": "a126d601",
          "currentPositionId()": "1131c8cd",
          "getInterestRate(uint256)": "0c196a74",
          "getLockPeriods()": "41ee13be",
          "getPositionById(uint256)": "b838ec86",
          "getPositionIdsForAddress(address)": "40d98a44",
          "lockPeriods(uint256)": "4c8f2a78",
          "owner()": "8da5cb5b",
          "positions(uint256)": "99fbab88",
          "stakeEther(uint256)": "e4f90841",
          "tiers(uint256)": "039af9eb"
        }
      }
    }
  }
}